:1000000009C016C015C015C013C012C011C010C061
:100010000FC00EC011241FBECFE9CDBF20E0A0E667
:10002000B0E001C01D92A236B207E1F7CED1E5C122
:10003000E7CF1F920F920FB60F9211248F938091EA
:1000400060008F5F8093600085B78F7D85BF8F9143
:100050000F900FBE0F901F901895479A88B3817E1E
:1000600088BBBA9887B38A6187BB84E083BF89B7AE
:10007000826089BF85B7877E85BF089505C000006F
:1000800000000000000000008150C8F708950F93A1
:100090001F93CF93DF93F894C0E0D0E0082F10E0D7
:1000A000BA9A85E0EBDFC8010C2E02C095958795C2
:1000B0000A94E2F780FDBA9881E4E0DFBA9885E01F
:1000C000DDDF2196C830D10559F77894DF91CF91C3
:1000D0001F910F910895CF93DF93F894D8E0C0E07B
:1000E000BA9A83E0CBDFBA988FE0C8DFC695B299A1
:1000F000C0688DE2C3DFD15099F778948C2FDF91DF
:10010000CF910895CF93C82FCC2351F08AEFB6DF5B
:100110008AEFB4DF8AEFB2DF8AEFB0DFC150F4CFED
:10012000CF910895CF93F894BA9A81E0EBDFBA9813
:1001300081E4A4DFC6B3C4707894C11102C08FEF0C
:100140009DDF8C2FCF910895CF93DF931F92CDB772
:10015000DD279091600099830DC099819E56998307
:1001600004C095B7906295BF8895209160009981F1
:100170002913F7CF815088F70F90DF91CF91089521
:10018000E199FECF8EBBE09A8DB30895CF93DF93B4
:10019000EC0180E0F5DF888381E0F2DF898383E092
:1001A000EFDF8B838881998198170CF4898399817B
:1001B000891B87FF01C081958C838C8184302CF052
:1001C00094E09D838695869502C08D8381E08C8323
:1001D000DF91CF910895A6DF81110CC08CEC57DF21
:1001E0008EE455DF88E853DF8FEF51DF80E04FDF8B
:1001F00081E0089580E008950F931F93CF93DF93DC
:10020000C82F90DF882311F0C1E83CC08CEC3FDFA1
:1002100084E43DDFCC2319F084E674DF02C081E082
:1002200093DF80DF8111F0CF8CEC31DF8EEB2FDF9D
:10023000C0E010E0D0E00CE84EDFD11104C0982FF0
:1002400092959F7005C0D13029F4982F9295907F98
:10025000C92B09C0D53019F48F3F29F0D5CFD7303D
:1002600011F4803189F6DF5F98E0282F2127169559
:1002700020FD102786959150C1F7D830E9F62BDF85
:100280008113C2E88C2FDF91CF911F910F910895B8
:10029000FF920F931F93CF93DF93EB01893814F4F0
:1002A00083E004C02881281724F081E08093610056
:1002B0003CC090916100913039F09981981724F0F9
:1002C00092E09093610014C0332727FD3095275F9B
:1002D0003F4F482F552747FD5095241735071CF4ED
:1002E00092E0909361009981891714F01092610057
:1002F000909161009230C9F44C819981941B2D81B9
:10030000332727FD309510E0642F619507C09817BB
:1003100024F4110F110F110F09C0960F1F5F412F09
:1003200050E0421753079CF3F4CF10E09B8180917B
:100330006100923088F4823019F4C39AC49808C0DE
:10034000813091F4911102C0C39801C0C39AC49A3C
:1003500009E282E0F82E31C0813021F488B388614F
:1003600088BBF6CF8230A1F388B3877EF9CF81E0D6
:10037000EBDE80916100833040F0C19A8EE1C2DEF5
:10038000C1988AEFBFDEC19A1AC0823081F48B8196
:1003900082304CF088B3112321F0886188BB115062
:1003A00002C0877E88BB88B38F2588BB06C0C19AF0
:1003B000811103C08EE1A6DEC1980150C1F6DF9124
:1003C000CF911F910F91FF900895CF93DF93CDB7F9
:1003D000DD27C650CDBF41DE7894C19A8E010F5FF4
:1003E0001F4FC801D3DEF12CF11002C0F4DEF82E4D
:0E03F0008F2D02DFB8014CDFF7CFF894FFCF5E
:00000001FF
